{
  "_format": "hh-sol-artifact-1",
  "contractName": "ThorPoll",
  "sourceName": "contracts/ThorPoll.sol",
  "abi": [
    {
      "inputs": [
        {
          "internalType": "contract ThorVotingToken",
          "name": "_votingToken",
          "type": "address"
        }
      ],
      "stateMutability": "nonpayable",
      "type": "constructor"
    },
    {
      "anonymous": false,
      "inputs": [
        {
          "indexed": true,
          "internalType": "address",
          "name": "previousOwner",
          "type": "address"
        },
        {
          "indexed": true,
          "internalType": "address",
          "name": "newOwner",
          "type": "address"
        }
      ],
      "name": "OwnershipTransferred",
      "type": "event"
    },
    {
      "anonymous": false,
      "inputs": [
        {
          "indexed": false,
          "internalType": "uint256",
          "name": "id",
          "type": "uint256"
        },
        {
          "indexed": false,
          "internalType": "address",
          "name": "suggester",
          "type": "address"
        },
        {
          "indexed": false,
          "internalType": "string",
          "name": "suggestion",
          "type": "string"
        },
        {
          "indexed": false,
          "internalType": "uint256",
          "name": "atSnapshot",
          "type": "uint256"
        },
        {
          "indexed": false,
          "internalType": "uint256",
          "name": "startAt",
          "type": "uint256"
        },
        {
          "indexed": false,
          "internalType": "uint256",
          "name": "finishAt",
          "type": "uint256"
        }
      ],
      "name": "PollCreated",
      "type": "event"
    },
    {
      "anonymous": false,
      "inputs": [
        {
          "indexed": false,
          "internalType": "uint256",
          "name": "id",
          "type": "uint256"
        },
        {
          "indexed": false,
          "internalType": "address",
          "name": "voter",
          "type": "address"
        },
        {
          "indexed": false,
          "internalType": "bool",
          "name": "isApproving",
          "type": "bool"
        },
        {
          "indexed": false,
          "internalType": "uint256",
          "name": "votingPower",
          "type": "uint256"
        }
      ],
      "name": "Voted",
      "type": "event"
    },
    {
      "inputs": [],
      "name": "VotingToken",
      "outputs": [
        {
          "internalType": "contract ThorVotingToken",
          "name": "",
          "type": "address"
        }
      ],
      "stateMutability": "view",
      "type": "function"
    },
    {
      "inputs": [
        {
          "internalType": "address",
          "name": "_suggester",
          "type": "address"
        },
        {
          "internalType": "string",
          "name": "_suggestion",
          "type": "string"
        },
        {
          "internalType": "uint256",
          "name": "blockNumberSnapshot",
          "type": "uint256"
        },
        {
          "internalType": "uint256",
          "name": "_startAt",
          "type": "uint256"
        },
        {
          "internalType": "uint256",
          "name": "_finishAt",
          "type": "uint256"
        }
      ],
      "name": "createPoll",
      "outputs": [],
      "stateMutability": "nonpayable",
      "type": "function"
    },
    {
      "inputs": [],
      "name": "getPollsHistory",
      "outputs": [
        {
          "components": [
            {
              "internalType": "uint256",
              "name": "id",
              "type": "uint256"
            },
            {
              "internalType": "address",
              "name": "suggester",
              "type": "address"
            },
            {
              "internalType": "string",
              "name": "suggestion",
              "type": "string"
            },
            {
              "internalType": "uint256",
              "name": "votesFor",
              "type": "uint256"
            },
            {
              "internalType": "uint256",
              "name": "votesAgainst",
              "type": "uint256"
            },
            {
              "internalType": "uint256",
              "name": "atSnapshot",
              "type": "uint256"
            },
            {
              "internalType": "uint256",
              "name": "startAt",
              "type": "uint256"
            },
            {
              "internalType": "uint256",
              "name": "finishAt",
              "type": "uint256"
            }
          ],
          "internalType": "struct ThorPoll.Poll[]",
          "name": "",
          "type": "tuple[]"
        }
      ],
      "stateMutability": "view",
      "type": "function"
    },
    {
      "inputs": [
        {
          "internalType": "address",
          "name": "",
          "type": "address"
        },
        {
          "internalType": "uint256",
          "name": "",
          "type": "uint256"
        }
      ],
      "name": "hasVotedForId",
      "outputs": [
        {
          "internalType": "bool",
          "name": "",
          "type": "bool"
        }
      ],
      "stateMutability": "view",
      "type": "function"
    },
    {
      "inputs": [],
      "name": "owner",
      "outputs": [
        {
          "internalType": "address",
          "name": "",
          "type": "address"
        }
      ],
      "stateMutability": "view",
      "type": "function"
    },
    {
      "inputs": [
        {
          "internalType": "uint256",
          "name": "",
          "type": "uint256"
        }
      ],
      "name": "pollsHistory",
      "outputs": [
        {
          "internalType": "uint256",
          "name": "id",
          "type": "uint256"
        },
        {
          "internalType": "address",
          "name": "suggester",
          "type": "address"
        },
        {
          "internalType": "string",
          "name": "suggestion",
          "type": "string"
        },
        {
          "internalType": "uint256",
          "name": "votesFor",
          "type": "uint256"
        },
        {
          "internalType": "uint256",
          "name": "votesAgainst",
          "type": "uint256"
        },
        {
          "internalType": "uint256",
          "name": "atSnapshot",
          "type": "uint256"
        },
        {
          "internalType": "uint256",
          "name": "startAt",
          "type": "uint256"
        },
        {
          "internalType": "uint256",
          "name": "finishAt",
          "type": "uint256"
        }
      ],
      "stateMutability": "view",
      "type": "function"
    },
    {
      "inputs": [],
      "name": "renounceOwnership",
      "outputs": [],
      "stateMutability": "nonpayable",
      "type": "function"
    },
    {
      "inputs": [
        {
          "internalType": "address",
          "name": "newOwner",
          "type": "address"
        }
      ],
      "name": "transferOwnership",
      "outputs": [],
      "stateMutability": "nonpayable",
      "type": "function"
    },
    {
      "inputs": [
        {
          "internalType": "uint256",
          "name": "id",
          "type": "uint256"
        },
        {
          "internalType": "bool",
          "name": "isApproving",
          "type": "bool"
        }
      ],
      "name": "vote",
      "outputs": [],
      "stateMutability": "nonpayable",
      "type": "function"
    },
    {
      "inputs": [
        {
          "internalType": "address",
          "name": "",
          "type": "address"
        },
        {
          "internalType": "uint256",
          "name": "",
          "type": "uint256"
        }
      ],
      "name": "voteForId",
      "outputs": [
        {
          "internalType": "bool",
          "name": "",
          "type": "bool"
        }
      ],
      "stateMutability": "view",
      "type": "function"
    }
  ],
  "bytecode": "0x60a06040523480156200001157600080fd5b50604051620013bb380380620013bb8339810160408190526200003491620001cf565b6200003f336200017f565b6001600160a01b038181166080908152604080516101008101825260008082526020808301828152845191820185528282529383019081526060830182905293820181905260a0820181905260c0820181905260e08201819052600180548082018255915281517fb10e2d527612073b26eecdfd717e6a320cf44b4afac2b0732d9fcbe2b7fa0cf6600890920291820190815592517fb10e2d527612073b26eecdfd717e6a320cf44b4afac2b0732d9fcbe2b7fa0cf7820180546001600160a01b03191691909616179094559151919283927fb10e2d527612073b26eecdfd717e6a320cf44b4afac2b0732d9fcbe2b7fa0cf890910190620001429082620002a6565b50606082015181600301556080820151816004015560a0820151816005015560c0820151816006015560e082015181600701555050505062000372565b600080546001600160a01b038381166001600160a01b0319831681178455604051919092169283917f8be0079c531659141344cd1fd0a4f28419497f9722a3daafe3b4186f6b6457e09190a35050565b600060208284031215620001e257600080fd5b81516001600160a01b0381168114620001fa57600080fd5b9392505050565b634e487b7160e01b600052604160045260246000fd5b600181811c908216806200022c57607f821691505b6020821081036200024d57634e487b7160e01b600052602260045260246000fd5b50919050565b601f821115620002a157600081815260208120601f850160051c810160208610156200027c5750805b601f850160051c820191505b818110156200029d5782815560010162000288565b5050505b505050565b81516001600160401b03811115620002c257620002c262000201565b620002da81620002d3845462000217565b8462000253565b602080601f831160018114620003125760008415620002f95750858301515b600019600386901b1c1916600185901b1785556200029d565b600085815260208120601f198616915b82811015620003435788860151825594840194600190910190840162000322565b5085821015620003625787850151600019600388901b60f8161c191681555b5050505050600190811b01905550565b608051611026620003956000396000818161014b01526108bb01526110266000f3fe608060405234801561001057600080fd5b506004361061009e5760003560e01c80637249e9d3116100665780637249e9d3146101465780638da5cb5b14610185578063b0f0654214610196578063c9d27afe146101bd578063f2fde38b146101d057600080fd5b806324eadbd3146100a35780633f9ff6b2146100e65780634226872a146100fb5780635b95cca314610110578063715018a61461013e575b600080fd5b6100d16100b1366004610b20565b600260209081526000928352604080842090915290825290205460ff1681565b60405190151581526020015b60405180910390f35b6100ee6101e3565b6040516100dd9190610b90565b61010e610109366004610c65565b610327565b005b6100d161011e366004610b20565b600360209081526000928352604080842090915290825290205460ff1681565b61010e6105f7565b61016d7f000000000000000000000000000000000000000000000000000000000000000081565b6040516001600160a01b0390911681526020016100dd565b6000546001600160a01b031661016d565b6101a96101a4366004610d42565b61060b565b6040516100dd989796959493929190610d5b565b61010e6101cb366004610db2565b6106f2565b61010e6101de366004610de7565b6109e1565b60606001805480602002602001604051908101604052809291908181526020016000905b8282101561031e5760008481526020908190206040805161010081018252600886029092018054835260018101546001600160a01b0316938301939093526002830180549293929184019161025b90610e09565b80601f016020809104026020016040519081016040528092919081815260200182805461028790610e09565b80156102d45780601f106102a9576101008083540402835291602001916102d4565b820191906000526020600020905b8154815290600101906020018083116102b757829003601f168201915b505050505081526020016003820154815260200160048201548152602001600582015481526020016006820154815260200160078201548152505081526020019060010190610207565b50505050905090565b61032f610a5a565b438311156103bd5760405162461bcd60e51b815260206004820152604a60248201527f426c6f636b206e756d62657220666f7220736e617073686f74206e656564207460448201527f6f206265206c6f776572206f7220657175616c207468616e2063757272656e7460648201526902074696d657374616d760b41b608482015260a4015b60405180910390fd5b814211156104245760405162461bcd60e51b815260206004820152602e60248201527f566f7465732063616e6e6f74206f70656e206265666f7265207468652063757260448201526d072656e742074696d657374616d760941b60648201526084016103b4565b8082106104855760405162461bcd60e51b815260206004820152602960248201527f456e64206f6620766f7465732063616e6e6f742068617070656e206265666f7260448201526865206f70656e696e6760b81b60648201526084016103b4565b6001805460408051610100810182528281526001600160a01b03898116602083019081529282018981526000606084018190526080840181905260a084018a905260c0840189905260e0840188905285870187559590955281517fb10e2d527612073b26eecdfd717e6a320cf44b4afac2b0732d9fcbe2b7fa0cf66008860290810191825593517fb10e2d527612073b26eecdfd717e6a320cf44b4afac2b0732d9fcbe2b7fa0cf7850180546001600160a01b031916919093161790915593519293909283927fb10e2d527612073b26eecdfd717e6a320cf44b4afac2b0732d9fcbe2b7fa0cf801906105789082610e92565b50606082015181600301556080820151816004015560a0820151816005015560c0820151816006015560e0820151816007015550507f292b8cf602bff0b991ea7a825ec6c43e457e29c6f5e1d22a46cf606807ab6f2b8288888888886040516105e696959493929190610f52565b60405180910390a150505050505050565b6105ff610a5a565b6106096000610ab4565b565b6001818154811061061b57600080fd5b60009182526020909120600890910201805460018201546002830180549294506001600160a01b03909116929161065190610e09565b80601f016020809104026020016040519081016040528092919081815260200182805461067d90610e09565b80156106ca5780601f1061069f576101008083540402835291602001916106ca565b820191906000526020600020905b8154815290600101906020018083116106ad57829003601f168201915b5050505050908060030154908060040154908060050154908060060154908060070154905088565b8115801590610702575060015482105b6107465760405162461bcd60e51b81526020600482015260156024820152741259081c1bdb1b08191bd95cdb89dd08195e1a5cdd605a1b60448201526064016103b4565b60006001838154811061075b5761075b610f9a565b9060005260206000209060080201905042816006015411156107bf5760405162461bcd60e51b815260206004820152601960248201527f566f74657320706572696f64206e6f74206f70656e207965740000000000000060448201526064016103b4565b806007015442106108095760405162461bcd60e51b81526020600482015260146024820152732b37ba32b9903832b934b7b21034b99037bb32b960611b60448201526064016103b4565b33600090815260026020908152604080832086845290915290205460ff16156108745760405162461bcd60e51b815260206004820152601860248201527f43616c6c65722068617320616c726561647920766f746564000000000000000060448201526064016103b4565b336000818152600260209081526040808320878452909152808220805460ff1916600117905560058401549051630748d63560e31b815260048101939093526024830152907f00000000000000000000000000000000000000000000000000000000000000006001600160a01b031690633a46b1a890604401602060405180830381865afa15801561090a573d6000803e3d6000fd5b505050506040513d601f19601f8201168201806040525081019061092e9190610fb0565b9050821561097a578082600301600082825461094a9190610fc9565b90915550503360009081526003602090815260408083208784529091529020805460ff1916841515179055610994565b8082600401600082825461098e9190610fc9565b90915550505b60408051858152336020820152841515818301526060810183905290517f7c2de587c00d75474a0c6c6fa96fd3b45dc974cd4e8a75f712bb84c950dce1b59181900360800190a150505050565b6109e9610a5a565b6001600160a01b038116610a4e5760405162461bcd60e51b815260206004820152602660248201527f4f776e61626c653a206e6577206f776e657220697320746865207a65726f206160448201526564647265737360d01b60648201526084016103b4565b610a5781610ab4565b50565b6000546001600160a01b031633146106095760405162461bcd60e51b815260206004820181905260248201527f4f776e61626c653a2063616c6c6572206973206e6f7420746865206f776e657260448201526064016103b4565b600080546001600160a01b038381166001600160a01b0319831681178455604051919092169283917f8be0079c531659141344cd1fd0a4f28419497f9722a3daafe3b4186f6b6457e09190a35050565b80356001600160a01b0381168114610b1b57600080fd5b919050565b60008060408385031215610b3357600080fd5b610b3c83610b04565b946020939093013593505050565b6000815180845260005b81811015610b7057602081850181015186830182015201610b54565b506000602082860101526020601f19601f83011685010191505092915050565b60006020808301818452808551808352604092508286019150828160051b87010184880160005b83811015610c4157888303603f19018552815180518452878101516001600160a01b0316888501528681015161010088860181905290610bf982870182610b4a565b606084810151908801526080808501519088015260a0808501519088015260c0808501519088015260e093840151939096019290925250509386019390860190600101610bb7565b509098975050505050505050565b634e487b7160e01b600052604160045260246000fd5b600080600080600060a08688031215610c7d57600080fd5b610c8686610b04565b9450602086013567ffffffffffffffff80821115610ca357600080fd5b818801915088601f830112610cb757600080fd5b813581811115610cc957610cc9610c4f565b604051601f8201601f19908116603f01168101908382118183101715610cf157610cf1610c4f565b816040528281528b6020848701011115610d0a57600080fd5b826020860160208301376000928101602001929092525096999698505050506040850135946060810135946080909101359350915050565b600060208284031215610d5457600080fd5b5035919050565b8881526001600160a01b038816602082015261010060408201819052600090610d868382018a610b4a565b60608401989098525050608081019490945260a084019290925260c083015260e0909101529392505050565b60008060408385031215610dc557600080fd5b8235915060208301358015158114610ddc57600080fd5b809150509250929050565b600060208284031215610df957600080fd5b610e0282610b04565b9392505050565b600181811c90821680610e1d57607f821691505b602082108103610e3d57634e487b7160e01b600052602260045260246000fd5b50919050565b601f821115610e8d57600081815260208120601f850160051c81016020861015610e6a5750805b601f850160051c820191505b81811015610e8957828155600101610e76565b5050505b505050565b815167ffffffffffffffff811115610eac57610eac610c4f565b610ec081610eba8454610e09565b84610e43565b602080601f831160018114610ef55760008415610edd5750858301515b600019600386901b1c1916600185901b178555610e89565b600085815260208120601f198616915b82811015610f2457888601518255948401946001909101908401610f05565b5085821015610f425787850151600019600388901b60f8161c191681555b5050505050600190811b01905550565b8681526001600160a01b038616602082015260c060408201819052600090610f7c90830187610b4a565b606083019590955250608081019290925260a0909101529392505050565b634e487b7160e01b600052603260045260246000fd5b600060208284031215610fc257600080fd5b5051919050565b80820180821115610fea57634e487b7160e01b600052601160045260246000fd5b9291505056fea264697066735822122033e6931d8c5171114e436d09322c5de3858953a838f6df63b9679fdc04b03f6664736f6c63430008100033",
  "linkReferences": {},
  "deployedLinkReferences": {}
}