{
  "_format": "hh-sol-artifact-1",
  "contractName": "ThorVotingToken",
  "sourceName": "contracts/ThorVotingToken.sol",
  "abi": [
    {
      "inputs": [],
      "stateMutability": "nonpayable",
      "type": "constructor"
    },
    {
      "inputs": [],
      "name": "MaxSupplyReached",
      "type": "error"
    },
    {
      "anonymous": false,
      "inputs": [
        {
          "indexed": true,
          "internalType": "address",
          "name": "owner",
          "type": "address"
        },
        {
          "indexed": true,
          "internalType": "address",
          "name": "spender",
          "type": "address"
        },
        {
          "indexed": false,
          "internalType": "uint256",
          "name": "value",
          "type": "uint256"
        }
      ],
      "name": "Approval",
      "type": "event"
    },
    {
      "anonymous": false,
      "inputs": [
        {
          "indexed": true,
          "internalType": "address",
          "name": "delegator",
          "type": "address"
        },
        {
          "indexed": true,
          "internalType": "address",
          "name": "fromDelegate",
          "type": "address"
        },
        {
          "indexed": true,
          "internalType": "address",
          "name": "toDelegate",
          "type": "address"
        }
      ],
      "name": "DelegateChanged",
      "type": "event"
    },
    {
      "anonymous": false,
      "inputs": [
        {
          "indexed": true,
          "internalType": "address",
          "name": "delegate",
          "type": "address"
        },
        {
          "indexed": false,
          "internalType": "uint256",
          "name": "previousBalance",
          "type": "uint256"
        },
        {
          "indexed": false,
          "internalType": "uint256",
          "name": "newBalance",
          "type": "uint256"
        }
      ],
      "name": "DelegateVotesChanged",
      "type": "event"
    },
    {
      "anonymous": false,
      "inputs": [
        {
          "indexed": true,
          "internalType": "address",
          "name": "previousOwner",
          "type": "address"
        },
        {
          "indexed": true,
          "internalType": "address",
          "name": "newOwner",
          "type": "address"
        }
      ],
      "name": "OwnershipTransferred",
      "type": "event"
    },
    {
      "anonymous": false,
      "inputs": [
        {
          "indexed": true,
          "internalType": "address",
          "name": "from",
          "type": "address"
        },
        {
          "indexed": true,
          "internalType": "address",
          "name": "to",
          "type": "address"
        },
        {
          "indexed": false,
          "internalType": "uint256",
          "name": "value",
          "type": "uint256"
        }
      ],
      "name": "Transfer",
      "type": "event"
    },
    {
      "inputs": [],
      "name": "DOMAIN_SEPARATOR",
      "outputs": [
        {
          "internalType": "bytes32",
          "name": "",
          "type": "bytes32"
        }
      ],
      "stateMutability": "view",
      "type": "function"
    },
    {
      "inputs": [],
      "name": "MAX_SUPPLY",
      "outputs": [
        {
          "internalType": "uint256",
          "name": "",
          "type": "uint256"
        }
      ],
      "stateMutability": "view",
      "type": "function"
    },
    {
      "inputs": [
        {
          "internalType": "address[]",
          "name": "wallets",
          "type": "address[]"
        },
        {
          "internalType": "uint256",
          "name": "amount",
          "type": "uint256"
        }
      ],
      "name": "airdrop",
      "outputs": [],
      "stateMutability": "nonpayable",
      "type": "function"
    },
    {
      "inputs": [
        {
          "internalType": "address",
          "name": "owner",
          "type": "address"
        },
        {
          "internalType": "address",
          "name": "spender",
          "type": "address"
        }
      ],
      "name": "allowance",
      "outputs": [
        {
          "internalType": "uint256",
          "name": "",
          "type": "uint256"
        }
      ],
      "stateMutability": "view",
      "type": "function"
    },
    {
      "inputs": [
        {
          "internalType": "address",
          "name": "spender",
          "type": "address"
        },
        {
          "internalType": "uint256",
          "name": "amount",
          "type": "uint256"
        }
      ],
      "name": "approve",
      "outputs": [
        {
          "internalType": "bool",
          "name": "",
          "type": "bool"
        }
      ],
      "stateMutability": "nonpayable",
      "type": "function"
    },
    {
      "inputs": [
        {
          "internalType": "address",
          "name": "account",
          "type": "address"
        }
      ],
      "name": "balanceOf",
      "outputs": [
        {
          "internalType": "uint256",
          "name": "",
          "type": "uint256"
        }
      ],
      "stateMutability": "view",
      "type": "function"
    },
    {
      "inputs": [
        {
          "internalType": "address",
          "name": "account",
          "type": "address"
        },
        {
          "internalType": "uint32",
          "name": "pos",
          "type": "uint32"
        }
      ],
      "name": "checkpoints",
      "outputs": [
        {
          "components": [
            {
              "internalType": "uint32",
              "name": "fromBlock",
              "type": "uint32"
            },
            {
              "internalType": "uint224",
              "name": "votes",
              "type": "uint224"
            }
          ],
          "internalType": "struct ERC20Votes.Checkpoint",
          "name": "",
          "type": "tuple"
        }
      ],
      "stateMutability": "view",
      "type": "function"
    },
    {
      "inputs": [],
      "name": "decimals",
      "outputs": [
        {
          "internalType": "uint8",
          "name": "",
          "type": "uint8"
        }
      ],
      "stateMutability": "view",
      "type": "function"
    },
    {
      "inputs": [
        {
          "internalType": "address",
          "name": "spender",
          "type": "address"
        },
        {
          "internalType": "uint256",
          "name": "subtractedValue",
          "type": "uint256"
        }
      ],
      "name": "decreaseAllowance",
      "outputs": [
        {
          "internalType": "bool",
          "name": "",
          "type": "bool"
        }
      ],
      "stateMutability": "nonpayable",
      "type": "function"
    },
    {
      "inputs": [
        {
          "internalType": "address",
          "name": "delegatee",
          "type": "address"
        }
      ],
      "name": "delegate",
      "outputs": [],
      "stateMutability": "nonpayable",
      "type": "function"
    },
    {
      "inputs": [
        {
          "internalType": "address",
          "name": "delegatee",
          "type": "address"
        },
        {
          "internalType": "uint256",
          "name": "nonce",
          "type": "uint256"
        },
        {
          "internalType": "uint256",
          "name": "expiry",
          "type": "uint256"
        },
        {
          "internalType": "uint8",
          "name": "v",
          "type": "uint8"
        },
        {
          "internalType": "bytes32",
          "name": "r",
          "type": "bytes32"
        },
        {
          "internalType": "bytes32",
          "name": "s",
          "type": "bytes32"
        }
      ],
      "name": "delegateBySig",
      "outputs": [],
      "stateMutability": "nonpayable",
      "type": "function"
    },
    {
      "inputs": [
        {
          "internalType": "address",
          "name": "account",
          "type": "address"
        }
      ],
      "name": "delegates",
      "outputs": [
        {
          "internalType": "address",
          "name": "",
          "type": "address"
        }
      ],
      "stateMutability": "view",
      "type": "function"
    },
    {
      "inputs": [
        {
          "internalType": "uint256",
          "name": "blockNumber",
          "type": "uint256"
        }
      ],
      "name": "getPastTotalSupply",
      "outputs": [
        {
          "internalType": "uint256",
          "name": "",
          "type": "uint256"
        }
      ],
      "stateMutability": "view",
      "type": "function"
    },
    {
      "inputs": [
        {
          "internalType": "address",
          "name": "account",
          "type": "address"
        },
        {
          "internalType": "uint256",
          "name": "blockNumber",
          "type": "uint256"
        }
      ],
      "name": "getPastVotes",
      "outputs": [
        {
          "internalType": "uint256",
          "name": "",
          "type": "uint256"
        }
      ],
      "stateMutability": "view",
      "type": "function"
    },
    {
      "inputs": [
        {
          "internalType": "address",
          "name": "account",
          "type": "address"
        }
      ],
      "name": "getVotes",
      "outputs": [
        {
          "internalType": "uint256",
          "name": "",
          "type": "uint256"
        }
      ],
      "stateMutability": "view",
      "type": "function"
    },
    {
      "inputs": [
        {
          "internalType": "address",
          "name": "spender",
          "type": "address"
        },
        {
          "internalType": "uint256",
          "name": "addedValue",
          "type": "uint256"
        }
      ],
      "name": "increaseAllowance",
      "outputs": [
        {
          "internalType": "bool",
          "name": "",
          "type": "bool"
        }
      ],
      "stateMutability": "nonpayable",
      "type": "function"
    },
    {
      "inputs": [
        {
          "internalType": "address",
          "name": "to",
          "type": "address"
        },
        {
          "internalType": "uint256",
          "name": "amount",
          "type": "uint256"
        }
      ],
      "name": "mint",
      "outputs": [],
      "stateMutability": "nonpayable",
      "type": "function"
    },
    {
      "inputs": [],
      "name": "name",
      "outputs": [
        {
          "internalType": "string",
          "name": "",
          "type": "string"
        }
      ],
      "stateMutability": "view",
      "type": "function"
    },
    {
      "inputs": [
        {
          "internalType": "address",
          "name": "owner",
          "type": "address"
        }
      ],
      "name": "nonces",
      "outputs": [
        {
          "internalType": "uint256",
          "name": "",
          "type": "uint256"
        }
      ],
      "stateMutability": "view",
      "type": "function"
    },
    {
      "inputs": [
        {
          "internalType": "address",
          "name": "account",
          "type": "address"
        }
      ],
      "name": "numCheckpoints",
      "outputs": [
        {
          "internalType": "uint32",
          "name": "",
          "type": "uint32"
        }
      ],
      "stateMutability": "view",
      "type": "function"
    },
    {
      "inputs": [],
      "name": "owner",
      "outputs": [
        {
          "internalType": "address",
          "name": "",
          "type": "address"
        }
      ],
      "stateMutability": "view",
      "type": "function"
    },
    {
      "inputs": [
        {
          "internalType": "address",
          "name": "owner",
          "type": "address"
        },
        {
          "internalType": "address",
          "name": "spender",
          "type": "address"
        },
        {
          "internalType": "uint256",
          "name": "value",
          "type": "uint256"
        },
        {
          "internalType": "uint256",
          "name": "deadline",
          "type": "uint256"
        },
        {
          "internalType": "uint8",
          "name": "v",
          "type": "uint8"
        },
        {
          "internalType": "bytes32",
          "name": "r",
          "type": "bytes32"
        },
        {
          "internalType": "bytes32",
          "name": "s",
          "type": "bytes32"
        }
      ],
      "name": "permit",
      "outputs": [],
      "stateMutability": "nonpayable",
      "type": "function"
    },
    {
      "inputs": [],
      "name": "renounceOwnership",
      "outputs": [],
      "stateMutability": "nonpayable",
      "type": "function"
    },
    {
      "inputs": [],
      "name": "symbol",
      "outputs": [
        {
          "internalType": "string",
          "name": "",
          "type": "string"
        }
      ],
      "stateMutability": "view",
      "type": "function"
    },
    {
      "inputs": [],
      "name": "totalSupply",
      "outputs": [
        {
          "internalType": "uint256",
          "name": "",
          "type": "uint256"
        }
      ],
      "stateMutability": "view",
      "type": "function"
    },
    {
      "inputs": [
        {
          "internalType": "address",
          "name": "to",
          "type": "address"
        },
        {
          "internalType": "uint256",
          "name": "amount",
          "type": "uint256"
        }
      ],
      "name": "transfer",
      "outputs": [
        {
          "internalType": "bool",
          "name": "",
          "type": "bool"
        }
      ],
      "stateMutability": "nonpayable",
      "type": "function"
    },
    {
      "inputs": [
        {
          "internalType": "address",
          "name": "from",
          "type": "address"
        },
        {
          "internalType": "address",
          "name": "to",
          "type": "address"
        },
        {
          "internalType": "uint256",
          "name": "amount",
          "type": "uint256"
        }
      ],
      "name": "transferFrom",
      "outputs": [
        {
          "internalType": "bool",
          "name": "",
          "type": "bool"
        }
      ],
      "stateMutability": "nonpayable",
      "type": "function"
    },
    {
      "inputs": [
        {
          "internalType": "address",
          "name": "newOwner",
          "type": "address"
        }
      ],
      "name": "transferOwnership",
      "outputs": [],
      "stateMutability": "nonpayable",
      "type": "function"
    }
  ],
  "bytecode": "0x6101406040523480156200001257600080fd5b50604051806040016040528060048152602001632a3437b960e11b81525080604051806040016040528060018152602001603160f81b815250604051806040016040528060048152602001632a3437b960e11b815250604051806040016040528060038152602001622a242960e91b815250816003908162000095919062000252565b506004620000a4828262000252565b505050620000c1620000bb6200015760201b60201c565b6200015b565b815160209283012081519183019190912060e08290526101008190524660a0818152604080517f8b73c3c69bb8fe3d512ecc4cf759cc79239f7b179b0ffacaa9a75d522b39400f818801819052818301969096526060810194909452608080850193909352308483018190528151808603909301835260c09485019091528151919095012090529190915261012052506200031e565b3390565b600580546001600160a01b038381166001600160a01b0319831681179093556040519116919082907f8be0079c531659141344cd1fd0a4f28419497f9722a3daafe3b4186f6b6457e090600090a35050565b634e487b7160e01b600052604160045260246000fd5b600181811c90821680620001d857607f821691505b602082108103620001f957634e487b7160e01b600052602260045260246000fd5b50919050565b601f8211156200024d57600081815260208120601f850160051c81016020861015620002285750805b601f850160051c820191505b81811015620002495782815560010162000234565b5050505b505050565b81516001600160401b038111156200026e576200026e620001ad565b62000286816200027f8454620001c3565b84620001ff565b602080601f831160018114620002be5760008415620002a55750858301515b600019600386901b1c1916600185901b17855562000249565b600085815260208120601f198616915b82811015620002ef57888601518255948401946001909101908401620002ce565b50858210156200030e5787850151600019600388901b60f8161c191681555b5050505050600190811b01905550565b60805160a05160c05160e05161010051610120516120706200036e600039600061102f0152600061107e0152600061105901526000610fb201526000610fdc0152600061100601526120706000f3fe608060405234801561001057600080fd5b50600436106101c45760003560e01c8063715018a6116100f9578063a9059cbb11610097578063d505accf11610071578063d505accf146103c8578063dd62ed3e146103db578063f1127ed8146103ee578063f2fde38b1461042b57600080fd5b8063a9059cbb1461038f578063c204642c146103a2578063c3cda520146103b557600080fd5b80638e539e8c116100d35780638e539e8c1461034e57806395d89b41146103615780639ab24eb014610369578063a457c2d71461037c57600080fd5b8063715018a6146103225780637ecebe001461032a5780638da5cb5b1461033d57600080fd5b80633950935111610166578063587cde1e11610140578063587cde1e146102935780635c19a95c146102be5780636fcfff45146102d157806370a08231146102f957600080fd5b806339509351146102585780633a46b1a81461026b57806340c10f191461027e57600080fd5b806323b872dd116101a257806323b872dd1461021c578063313ce5671461022f57806332cb6b0c1461023e5780633644e5151461025057600080fd5b806306fdde03146101c9578063095ea7b3146101e757806318160ddd1461020a575b600080fd5b6101d161043e565b6040516101de9190611c82565b60405180910390f35b6101fa6101f5366004611cec565b6104d0565b60405190151581526020016101de565b6002545b6040519081526020016101de565b6101fa61022a366004611d16565b6104ea565b604051601281526020016101de565b61020e6a013da329b633647180000081565b61020e61050e565b6101fa610266366004611cec565b61051d565b61020e610279366004611cec565b61053f565b61029161028c366004611cec565b6105be565b005b6102a66102a1366004611d52565b610613565b6040516001600160a01b0390911681526020016101de565b6102916102cc366004611d52565b610631565b6102e46102df366004611d52565b61063e565b60405163ffffffff90911681526020016101de565b61020e610307366004611d52565b6001600160a01b031660009081526020819052604090205490565b610291610660565b61020e610338366004611d52565b610674565b6005546001600160a01b03166102a6565b61020e61035c366004611d6d565b610692565b6101d16106ee565b61020e610377366004611d52565b6106fd565b6101fa61038a366004611cec565b610784565b6101fa61039d366004611cec565b6107ff565b6102916103b0366004611d86565b61080d565b6102916103c3366004611e12565b61089e565b6102916103d6366004611e6a565b6109d4565b61020e6103e9366004611ed4565b610b38565b6104016103fc366004611f07565b610b63565b60408051825163ffffffff1681526020928301516001600160e01b031692810192909252016101de565b610291610439366004611d52565b610be7565b60606003805461044d90611f47565b80601f016020809104026020016040519081016040528092919081815260200182805461047990611f47565b80156104c65780601f1061049b576101008083540402835291602001916104c6565b820191906000526020600020905b8154815290600101906020018083116104a957829003601f168201915b5050505050905090565b6000336104de818585610c5d565b60019150505b92915050565b6000336104f8858285610d81565b610503858585610dfb565b506001949350505050565b6000610518610fa5565b905090565b6000336104de8185856105308383610b38565b61053a9190611f91565b610c5d565b60004382106105955760405162461bcd60e51b815260206004820152601f60248201527f4552433230566f7465733a20626c6f636b206e6f7420796574206d696e65640060448201526064015b60405180910390fd5b6001600160a01b03831660009081526009602052604090206105b790836110cc565b9392505050565b6105c66111c3565b6a013da329b6336471800000816105dc60025490565b6105e69190611f91565b11156106055760405163d05cb60960e01b815260040160405180910390fd5b61060f828261121d565b5050565b6001600160a01b039081166000908152600860205260409020541690565b61063b3382611227565b50565b6001600160a01b0381166000908152600960205260408120546104e4906112bd565b6106686111c3565b6106726000611326565b565b6001600160a01b0381166000908152600660205260408120546104e4565b60004382106106e35760405162461bcd60e51b815260206004820152601f60248201527f4552433230566f7465733a20626c6f636b206e6f7420796574206d696e656400604482015260640161058c565b6104e4600a836110cc565b60606004805461044d90611f47565b6001600160a01b0381166000908152600960205260408120548015610771576001600160a01b038316600090815260096020526040902061073f600183611fa4565b8154811061074f5761074f611fb7565b60009182526020909120015464010000000090046001600160e01b0316610774565b60005b6001600160e01b03169392505050565b600033816107928286610b38565b9050838110156107f25760405162461bcd60e51b815260206004820152602560248201527f45524332303a2064656372656173656420616c6c6f77616e63652062656c6f77604482015264207a65726f60d81b606482015260840161058c565b6105038286868403610c5d565b6000336104de818585610dfb565b6108156111c3565b6000826a013da329b633647180000061082e8285611fcd565b60025461083b9190611f91565b111561085a5760405163d05cb60960e01b815260040160405180910390fd5b61088a85858481811061086f5761086f611fb7565b90506020020160208101906108849190611d52565b8461121d565b81600101915080821061085a575050505050565b834211156108ee5760405162461bcd60e51b815260206004820152601d60248201527f4552433230566f7465733a207369676e61747572652065787069726564000000604482015260640161058c565b604080517fe48329057bfd03d55e49b547132e39cffd9c1820ad7b9d4c5307691425d15adf60208201526001600160a01b038816918101919091526060810186905260808101859052600090610968906109609060a00160405160208183030381529060405280519060200120611378565b8585856113c6565b9050610973816113ee565b86146109c15760405162461bcd60e51b815260206004820152601960248201527f4552433230566f7465733a20696e76616c6964206e6f6e636500000000000000604482015260640161058c565b6109cb8188611227565b50505050505050565b83421115610a245760405162461bcd60e51b815260206004820152601d60248201527f45524332305065726d69743a206578706972656420646561646c696e65000000604482015260640161058c565b60007f6e71edae12b1b97f4d1f60370fef10105fa2faae0126114a169c64845d6126c9888888610a538c6113ee565b6040805160208101969096526001600160a01b0394851690860152929091166060840152608083015260a082015260c0810186905260e0016040516020818303038152906040528051906020012090506000610aae82611378565b90506000610abe828787876113c6565b9050896001600160a01b0316816001600160a01b031614610b215760405162461bcd60e51b815260206004820152601e60248201527f45524332305065726d69743a20696e76616c6964207369676e61747572650000604482015260640161058c565b610b2c8a8a8a610c5d565b50505050505050505050565b6001600160a01b03918216600090815260016020908152604080832093909416825291909152205490565b60408051808201909152600080825260208201526001600160a01b0383166000908152600960205260409020805463ffffffff8416908110610ba757610ba7611fb7565b60009182526020918290206040805180820190915291015463ffffffff8116825264010000000090046001600160e01b0316918101919091529392505050565b610bef6111c3565b6001600160a01b038116610c545760405162461bcd60e51b815260206004820152602660248201527f4f776e61626c653a206e6577206f776e657220697320746865207a65726f206160448201526564647265737360d01b606482015260840161058c565b61063b81611326565b6001600160a01b038316610cbf5760405162461bcd60e51b8152602060048201526024808201527f45524332303a20617070726f76652066726f6d20746865207a65726f206164646044820152637265737360e01b606482015260840161058c565b6001600160a01b038216610d205760405162461bcd60e51b815260206004820152602260248201527f45524332303a20617070726f766520746f20746865207a65726f206164647265604482015261737360f01b606482015260840161058c565b6001600160a01b0383811660008181526001602090815260408083209487168084529482529182902085905590518481527f8c5be1e5ebec7d5bd14f71427d1e84f3dd0314c0f7b2291e5b200ac8c7c3b925910160405180910390a3505050565b6000610d8d8484610b38565b90506000198114610df55781811015610de85760405162461bcd60e51b815260206004820152601d60248201527f45524332303a20696e73756666696369656e7420616c6c6f77616e6365000000604482015260640161058c565b610df58484848403610c5d565b50505050565b6001600160a01b038316610e5f5760405162461bcd60e51b815260206004820152602560248201527f45524332303a207472616e736665722066726f6d20746865207a65726f206164604482015264647265737360d81b606482015260840161058c565b6001600160a01b038216610ec15760405162461bcd60e51b815260206004820152602360248201527f45524332303a207472616e7366657220746f20746865207a65726f206164647260448201526265737360e81b606482015260840161058c565b6001600160a01b03831660009081526020819052604090205481811015610f395760405162461bcd60e51b815260206004820152602660248201527f45524332303a207472616e7366657220616d6f756e7420657863656564732062604482015265616c616e636560d01b606482015260840161058c565b6001600160a01b03848116600081815260208181526040808320878703905593871680835291849020805487019055925185815290927fddf252ad1be2c89b69c2b068fc378daa952ba7f163c4a11628f55a4df523b3ef910160405180910390a3610df584848461141b565b6000306001600160a01b037f000000000000000000000000000000000000000000000000000000000000000016148015610ffe57507f000000000000000000000000000000000000000000000000000000000000000046145b1561102857507f000000000000000000000000000000000000000000000000000000000000000090565b50604080517f00000000000000000000000000000000000000000000000000000000000000006020808301919091527f0000000000000000000000000000000000000000000000000000000000000000828401527f000000000000000000000000000000000000000000000000000000000000000060608301524660808301523060a0808401919091528351808403909101815260c0909201909252805191012090565b8154600090818160058111156111265760006110e784611449565b6110f19085611fa4565b600088815260209020909150869082015463ffffffff16111561111657809150611124565b611121816001611f91565b92505b505b8082101561117357600061113a8383611531565b600088815260209020909150869082015463ffffffff16111561115f5780915061116d565b61116a816001611f91565b92505b50611126565b80156111ad5761119686611188600184611fa4565b600091825260209091200190565b5464010000000090046001600160e01b03166111b0565b60005b6001600160e01b03169695505050505050565b6005546001600160a01b031633146106725760405162461bcd60e51b815260206004820181905260248201527f4f776e61626c653a2063616c6c6572206973206e6f7420746865206f776e6572604482015260640161058c565b61060f828261154c565b600061123283610613565b90506000611255846001600160a01b031660009081526020819052604090205490565b6001600160a01b0385811660008181526008602052604080822080546001600160a01b031916898616908117909155905194955093928616927f3134e8a2e6d97e929a7e54011ea5485d7d196dd5f0ba4d4ef95803e8e3fc257f9190a4610df58284836115d6565b600063ffffffff8211156113225760405162461bcd60e51b815260206004820152602660248201527f53616665436173743a2076616c756520646f65736e27742066697420696e203360448201526532206269747360d01b606482015260840161058c565b5090565b600580546001600160a01b038381166001600160a01b0319831681179093556040519116919082907f8be0079c531659141344cd1fd0a4f28419497f9722a3daafe3b4186f6b6457e090600090a35050565b60006104e4611385610fa5565b8360405161190160f01b6020820152602281018390526042810182905260009060620160405160208183030381529060405280519060200120905092915050565b60008060006113d787878787611713565b915091506113e4816117d7565b5095945050505050565b6001600160a01b03811660009081526006602052604090208054600181018255905b50919050565b505050565b611426838383611921565b600061143183610613565b6001600160a01b031603611416576114168283611227565b60008160000361145b57506000919050565b600060016114688461193c565b901c6001901b9050600181848161148157611481611fec565b048201901c9050600181848161149957611499611fec565b048201901c905060018184816114b1576114b1611fec565b048201901c905060018184816114c9576114c9611fec565b048201901c905060018184816114e1576114e1611fec565b048201901c905060018184816114f9576114f9611fec565b048201901c9050600181848161151157611511611fec565b048201901c90506105b78182858161152b5761152b611fec565b046119d0565b60006115406002848418612002565b6105b790848416611f91565b61155682826119e6565b6002546001600160e01b0310156115c85760405162461bcd60e51b815260206004820152603060248201527f4552433230566f7465733a20746f74616c20737570706c79207269736b73206f60448201526f766572666c6f77696e6720766f74657360801b606482015260840161058c565b610df5600a611aad83611ab9565b816001600160a01b0316836001600160a01b0316141580156115f85750600081115b15611416576001600160a01b03831615611686576001600160a01b0383166000908152600960205260408120819061163390611c0d85611ab9565b91509150846001600160a01b03167fdec2bacdd2f05b59de34da9b523dff8be42e5e38e818c82fdb0bae774387a724838360405161167b929190918252602082015260400190565b60405180910390a250505b6001600160a01b03821615611416576001600160a01b038216600090815260096020526040812081906116bc90611aad85611ab9565b91509150836001600160a01b03167fdec2bacdd2f05b59de34da9b523dff8be42e5e38e818c82fdb0bae774387a7248383604051611704929190918252602082015260400190565b60405180910390a25050505050565b6000807f7fffffffffffffffffffffffffffffff5d576e7357a4501ddfe92f46681b20a083111561174a57506000905060036117ce565b6040805160008082526020820180845289905260ff881692820192909252606081018690526080810185905260019060a0016020604051602081039080840390855afa15801561179e573d6000803e3d6000fd5b5050604051601f1901519150506001600160a01b0381166117c7576000600192509250506117ce565b9150600090505b94509492505050565b60008160048111156117eb576117eb612024565b036117f35750565b600181600481111561180757611807612024565b036118545760405162461bcd60e51b815260206004820152601860248201527f45434453413a20696e76616c6964207369676e61747572650000000000000000604482015260640161058c565b600281600481111561186857611868612024565b036118b55760405162461bcd60e51b815260206004820152601f60248201527f45434453413a20696e76616c6964207369676e6174757265206c656e67746800604482015260640161058c565b60038160048111156118c9576118c9612024565b0361063b5760405162461bcd60e51b815260206004820152602260248201527f45434453413a20696e76616c6964207369676e6174757265202773272076616c604482015261756560f01b606482015260840161058c565b61141661192d84610613565b61193684610613565b836115d6565b600080608083901c1561195157608092831c92015b604083901c1561196357604092831c92015b602083901c1561197557602092831c92015b601083901c1561198757601092831c92015b600883901c1561199957600892831c92015b600483901c156119ab57600492831c92015b600283901c156119bd57600292831c92015b600183901c156104e45760010192915050565b60008183106119df57816105b7565b5090919050565b6001600160a01b038216611a3c5760405162461bcd60e51b815260206004820152601f60248201527f45524332303a206d696e7420746f20746865207a65726f206164647265737300604482015260640161058c565b8060026000828254611a4e9190611f91565b90915550506001600160a01b038216600081815260208181526040808320805486019055518481527fddf252ad1be2c89b69c2b068fc378daa952ba7f163c4a11628f55a4df523b3ef910160405180910390a361060f6000838361141b565b60006105b78284611f91565b82546000908190818115611b0657611ad687611188600185611fa4565b60408051808201909152905463ffffffff8116825264010000000090046001600160e01b03166020820152611b1b565b60408051808201909152600080825260208201525b905080602001516001600160e01b03169350611b3b84868863ffffffff16565b9250600082118015611b535750805163ffffffff1643145b15611b9857611b6183611c19565b611b7088611188600186611fa4565b80546001600160e01b03929092166401000000000263ffffffff909216919091179055611c03565b866040518060400160405280611bad436112bd565b63ffffffff168152602001611bc186611c19565b6001600160e01b0390811690915282546001810184556000938452602093849020835194909301519091166401000000000263ffffffff909316929092179101555b5050935093915050565b60006105b78284611fa4565b60006001600160e01b038211156113225760405162461bcd60e51b815260206004820152602760248201527f53616665436173743a2076616c756520646f65736e27742066697420696e20326044820152663234206269747360c81b606482015260840161058c565b600060208083528351808285015260005b81811015611caf57858101830151858201604001528201611c93565b506000604082860101526040601f19601f8301168501019250505092915050565b80356001600160a01b0381168114611ce757600080fd5b919050565b60008060408385031215611cff57600080fd5b611d0883611cd0565b946020939093013593505050565b600080600060608486031215611d2b57600080fd5b611d3484611cd0565b9250611d4260208501611cd0565b9150604084013590509250925092565b600060208284031215611d6457600080fd5b6105b782611cd0565b600060208284031215611d7f57600080fd5b5035919050565b600080600060408486031215611d9b57600080fd5b833567ffffffffffffffff80821115611db357600080fd5b818601915086601f830112611dc757600080fd5b813581811115611dd657600080fd5b8760208260051b8501011115611deb57600080fd5b6020928301989097509590910135949350505050565b803560ff81168114611ce757600080fd5b60008060008060008060c08789031215611e2b57600080fd5b611e3487611cd0565b95506020870135945060408701359350611e5060608801611e01565b92506080870135915060a087013590509295509295509295565b600080600080600080600060e0888a031215611e8557600080fd5b611e8e88611cd0565b9650611e9c60208901611cd0565b95506040880135945060608801359350611eb860808901611e01565b925060a0880135915060c0880135905092959891949750929550565b60008060408385031215611ee757600080fd5b611ef083611cd0565b9150611efe60208401611cd0565b90509250929050565b60008060408385031215611f1a57600080fd5b611f2383611cd0565b9150602083013563ffffffff81168114611f3c57600080fd5b809150509250929050565b600181811c90821680611f5b57607f821691505b60208210810361141057634e487b7160e01b600052602260045260246000fd5b634e487b7160e01b600052601160045260246000fd5b808201808211156104e4576104e4611f7b565b818103818111156104e4576104e4611f7b565b634e487b7160e01b600052603260045260246000fd5b6000816000190483118215151615611fe757611fe7611f7b565b500290565b634e487b7160e01b600052601260045260246000fd5b60008261201f57634e487b7160e01b600052601260045260246000fd5b500490565b634e487b7160e01b600052602160045260246000fdfea2646970667358221220aeb3e880a7d19d632109f1f598fb4ec47d82e6388f2c5cd13eaf3f2bff917a2964736f6c63430008100033",
  "linkReferences": {},
  "deployedLinkReferences": {}
}